{
  "_format": "hh-sol-artifact-1",
  "contractName": "MedicalRecords",
  "sourceName": "contracts/MedicalRecords.sol",
  "abi": [
    {
      "inputs": [],
      "stateMutability": "nonpayable",
      "type": "constructor"
    },
    {
      "anonymous": false,
      "inputs": [
        {
          "indexed": true,
          "internalType": "uint256",
          "name": "recordId",
          "type": "uint256"
        },
        {
          "indexed": true,
          "internalType": "address",
          "name": "patient",
          "type": "address"
        },
        {
          "indexed": true,
          "internalType": "address",
          "name": "doctor",
          "type": "address"
        }
      ],
      "name": "AccessGranted",
      "type": "event"
    },
    {
      "anonymous": false,
      "inputs": [
        {
          "indexed": true,
          "internalType": "uint256",
          "name": "recordId",
          "type": "uint256"
        },
        {
          "indexed": true,
          "internalType": "address",
          "name": "patient",
          "type": "address"
        },
        {
          "indexed": true,
          "internalType": "address",
          "name": "doctor",
          "type": "address"
        }
      ],
      "name": "AccessRevoked",
      "type": "event"
    },
    {
      "anonymous": false,
      "inputs": [
        {
          "indexed": true,
          "internalType": "uint256",
          "name": "recordId",
          "type": "uint256"
        },
        {
          "indexed": true,
          "internalType": "address",
          "name": "patient",
          "type": "address"
        },
        {
          "indexed": false,
          "internalType": "string",
          "name": "ipfsHash",
          "type": "string"
        }
      ],
      "name": "RecordUploaded",
      "type": "event"
    },
    {
      "anonymous": false,
      "inputs": [
        {
          "indexed": true,
          "internalType": "address",
          "name": "userAddress",
          "type": "address"
        },
        {
          "indexed": false,
          "internalType": "enum MedicalRecords.Role",
          "name": "role",
          "type": "uint8"
        },
        {
          "indexed": false,
          "internalType": "string",
          "name": "name",
          "type": "string"
        }
      ],
      "name": "UserRegistered",
      "type": "event"
    },
    {
      "inputs": [],
      "name": "admin",
      "outputs": [
        {
          "internalType": "address",
          "name": "",
          "type": "address"
        }
      ],
      "stateMutability": "view",
      "type": "function"
    },
    {
      "inputs": [
        {
          "internalType": "address",
          "name": "_patientAddress",
          "type": "address"
        }
      ],
      "name": "getPatientRecords",
      "outputs": [
        {
          "internalType": "uint256[]",
          "name": "",
          "type": "uint256[]"
        }
      ],
      "stateMutability": "view",
      "type": "function"
    },
    {
      "inputs": [
        {
          "internalType": "uint256",
          "name": "_recordId",
          "type": "uint256"
        }
      ],
      "name": "getRecordDetails",
      "outputs": [
        {
          "internalType": "address",
          "name": "patient",
          "type": "address"
        },
        {
          "internalType": "string",
          "name": "recordType",
          "type": "string"
        },
        {
          "internalType": "uint256",
          "name": "timestamp",
          "type": "uint256"
        },
        {
          "internalType": "address",
          "name": "uploadedBy",
          "type": "address"
        }
      ],
      "stateMutability": "view",
      "type": "function"
    },
    {
      "inputs": [
        {
          "internalType": "address",
          "name": "_userAddress",
          "type": "address"
        }
      ],
      "name": "getUserDetails",
      "outputs": [
        {
          "internalType": "enum MedicalRecords.Role",
          "name": "role",
          "type": "uint8"
        },
        {
          "internalType": "string",
          "name": "name",
          "type": "string"
        },
        {
          "internalType": "bool",
          "name": "isRegistered",
          "type": "bool"
        }
      ],
      "stateMutability": "view",
      "type": "function"
    },
    {
      "inputs": [
        {
          "internalType": "uint256",
          "name": "_recordId",
          "type": "uint256"
        },
        {
          "internalType": "address",
          "name": "_doctorAddress",
          "type": "address"
        }
      ],
      "name": "grantAccess",
      "outputs": [],
      "stateMutability": "nonpayable",
      "type": "function"
    },
    {
      "inputs": [
        {
          "internalType": "uint256",
          "name": "_recordId",
          "type": "uint256"
        },
        {
          "internalType": "address",
          "name": "_doctorAddress",
          "type": "address"
        }
      ],
      "name": "hasAccess",
      "outputs": [
        {
          "internalType": "bool",
          "name": "",
          "type": "bool"
        }
      ],
      "stateMutability": "view",
      "type": "function"
    },
    {
      "inputs": [
        {
          "internalType": "address",
          "name": "",
          "type": "address"
        },
        {
          "internalType": "uint256",
          "name": "",
          "type": "uint256"
        }
      ],
      "name": "patientRecords",
      "outputs": [
        {
          "internalType": "uint256",
          "name": "",
          "type": "uint256"
        }
      ],
      "stateMutability": "view",
      "type": "function"
    },
    {
      "inputs": [
        {
          "internalType": "uint256",
          "name": "",
          "type": "uint256"
        },
        {
          "internalType": "address",
          "name": "",
          "type": "address"
        }
      ],
      "name": "recordAccess",
      "outputs": [
        {
          "internalType": "address",
          "name": "doctorAddress",
          "type": "address"
        },
        {
          "internalType": "uint256",
          "name": "grantedAt",
          "type": "uint256"
        },
        {
          "internalType": "bool",
          "name": "isActive",
          "type": "bool"
        }
      ],
      "stateMutability": "view",
      "type": "function"
    },
    {
      "inputs": [],
      "name": "recordCounter",
      "outputs": [
        {
          "internalType": "uint256",
          "name": "",
          "type": "uint256"
        }
      ],
      "stateMutability": "view",
      "type": "function"
    },
    {
      "inputs": [
        {
          "internalType": "uint256",
          "name": "",
          "type": "uint256"
        }
      ],
      "name": "records",
      "outputs": [
        {
          "internalType": "uint256",
          "name": "recordId",
          "type": "uint256"
        },
        {
          "internalType": "address",
          "name": "patientAddress",
          "type": "address"
        },
        {
          "internalType": "string",
          "name": "ipfsHash",
          "type": "string"
        },
        {
          "internalType": "string",
          "name": "recordType",
          "type": "string"
        },
        {
          "internalType": "uint256",
          "name": "timestamp",
          "type": "uint256"
        },
        {
          "internalType": "address",
          "name": "uploadedBy",
          "type": "address"
        },
        {
          "internalType": "bool",
          "name": "exists",
          "type": "bool"
        }
      ],
      "stateMutability": "view",
      "type": "function"
    },
    {
      "inputs": [
        {
          "internalType": "address",
          "name": "_userAddress",
          "type": "address"
        },
        {
          "internalType": "enum MedicalRecords.Role",
          "name": "_role",
          "type": "uint8"
        },
        {
          "internalType": "string",
          "name": "_name",
          "type": "string"
        }
      ],
      "name": "registerUser",
      "outputs": [],
      "stateMutability": "nonpayable",
      "type": "function"
    },
    {
      "inputs": [
        {
          "internalType": "uint256",
          "name": "_recordId",
          "type": "uint256"
        },
        {
          "internalType": "address",
          "name": "_doctorAddress",
          "type": "address"
        }
      ],
      "name": "revokeAccess",
      "outputs": [],
      "stateMutability": "nonpayable",
      "type": "function"
    },
    {
      "inputs": [
        {
          "internalType": "address",
          "name": "_patientAddress",
          "type": "address"
        },
        {
          "internalType": "string",
          "name": "_ipfsHash",
          "type": "string"
        },
        {
          "internalType": "string",
          "name": "_recordType",
          "type": "string"
        }
      ],
      "name": "uploadRecord",
      "outputs": [
        {
          "internalType": "uint256",
          "name": "",
          "type": "uint256"
        }
      ],
      "stateMutability": "nonpayable",
      "type": "function"
    },
    {
      "inputs": [
        {
          "internalType": "address",
          "name": "",
          "type": "address"
        }
      ],
      "name": "users",
      "outputs": [
        {
          "internalType": "address",
          "name": "userAddress",
          "type": "address"
        },
        {
          "internalType": "enum MedicalRecords.Role",
          "name": "role",
          "type": "uint8"
        },
        {
          "internalType": "string",
          "name": "name",
          "type": "string"
        },
        {
          "internalType": "bool",
          "name": "isRegistered",
          "type": "bool"
        }
      ],
      "stateMutability": "view",
      "type": "function"
    },
    {
      "inputs": [
        {
          "internalType": "uint256",
          "name": "_recordId",
          "type": "uint256"
        }
      ],
      "name": "viewRecordHash",
      "outputs": [
        {
          "internalType": "string",
          "name": "",
          "type": "string"
        }
      ],
      "stateMutability": "view",
      "type": "function"
    }
  ],
  "bytecode": "0x60806040523480156200001157600080fd5b5060058054336001600160a01b03199182168117909255604080516080810182528381526002602080830182815284518086018652600c81526b29bcb9ba32b69020b236b4b760a11b81840152848601526001606085015260009687529086905292909420815181549485166001600160a01b039091169081178255925191949093919284926001600160a81b0319161790600160a01b908490811115620000bd57620000bd620000fa565b021790555060408201516001820190620000d89082620001b5565b50606091909101516002909101805460ff191691151591909117905562000281565b634e487b7160e01b600052602160045260246000fd5b634e487b7160e01b600052604160045260246000fd5b600181811c908216806200013b57607f821691505b6020821081036200015c57634e487b7160e01b600052602260045260246000fd5b50919050565b601f821115620001b057600081815260208120601f850160051c810160208610156200018b5750805b601f850160051c820191505b81811015620001ac5782815560010162000197565b5050505b505050565b81516001600160401b03811115620001d157620001d162000110565b620001e981620001e2845462000126565b8462000162565b602080601f831160018114620002215760008415620002085750858301515b600019600386901b1c1916600185901b178555620001ac565b600085815260208120601f198616915b82811015620002525788860151825594840194600190910190840162000231565b5085821015620002715787850151600019600388901b60f8161c191681555b5050505050600190811b01905550565b611a3880620002916000396000f3fe608060405234801561001057600080fd5b50600436106100f55760003560e01c8063a87430ba11610097578063ced1419811610066578063ced1419814610281578063d8c08673146102cd578063d9a5ec1b146102f0578063f851a4401461030357600080fd5b8063a87430ba146101bb578063be133663146101de578063c459a8ce146101f1578063cc3d967b1461025f57600080fd5b80634abab94d116100d35780634abab94d1461016a57806365dd152c1461018a5780637599be5d1461019f57806394f0df61146101a857600080fd5b806318bd4847146100fa578063344610671461012357806338d4ea2314610149575b600080fd5b61010d610108366004611430565b61032e565b60405161011a9190611452565b60405180910390f35b610136610131366004611496565b610400565b60405161011a97969594939291906114f5565b61015c6101573660046115f6565b610565565b60405190815260200161011a565b61017d610178366004611496565b6107e5565b60405161011a919061166a565b61019d61019836600461167d565b610a82565b005b61015c60045481565b61015c6101b63660046116a9565b610c4a565b6101ce6101c9366004611430565b610c7b565b60405161011a949392919061170b565b61019d6101ec36600461174d565b610d3f565b6102386101ff36600461167d565b60036020908152600092835260408084209091529082529020805460018201546002909201546001600160a01b03909116919060ff1683565b604080516001600160a01b039094168452602084019290925215159082015260600161011a565b61027261026d366004611430565b610f45565b60405161011a939291906117a7565b6102bd61028f36600461167d565b60009182526003602090815260408084206001600160a01b0393909316845291905290206002015460ff1690565b604051901515815260200161011a565b6102e06102db366004611496565b61106b565b60405161011a94939291906117d9565b61019d6102fe36600461167d565b611316565b600554610316906001600160a01b031681565b6040516001600160a01b03909116815260200161011a565b6060336001600160a01b03831614806103715750600233600090815260208190526040902054600160a01b900460ff16600281111561036f5761036f6116d3565b145b6103965760405162461bcd60e51b815260040161038d90611814565b60405180910390fd5b6001600160a01b038216600090815260026020908152604091829020805483518184028101840190945280845290918301828280156103f457602002820191906000526020600020905b8154815260200190600101908083116103e0575b50505050509050919050565b60016020819052600091825260409091208054918101546002820180546001600160a01b0390921692916104339061183b565b80601f016020809104026020016040519081016040528092919081815260200182805461045f9061183b565b80156104ac5780601f10610481576101008083540402835291602001916104ac565b820191906000526020600020905b81548152906001019060200180831161048f57829003601f168201915b5050505050908060030180546104c19061183b565b80601f01602080910402602001604051908101604052809291908181526020018280546104ed9061183b565b801561053a5780601f1061050f5761010080835404028352916020019161053a565b820191906000526020600020905b81548152906001019060200180831161051d57829003601f168201915b5050505060048301546005909301549192916001600160a01b0381169150600160a01b900460ff1687565b3360009081526020819052604081206002015460ff166105bd5760405162461bcd60e51b8152602060048201526013602482015272155cd95c881b9bdd081c9959da5cdd195c9959606a1b604482015260640161038d565b600133600090815260208190526040902054600160a01b900460ff1660028111156105ea576105ea6116d3565b14806106205750600233600090815260208190526040902054600160a01b900460ff16600281111561061e5761061e6116d3565b145b806106335750336001600160a01b038516145b61067f5760405162461bcd60e51b815260206004820152601d60248201527f556e617574686f72697a656420746f2075706c6f6164207265636f7264000000604482015260640161038d565b6004805490600061068f83611875565b90915550506040805160e0810182526004548082526001600160a01b038781166020808501918252848601898152606086018990524260808701523360a0870152600160c087018190526000958652918290529590932084518155905192810180546001600160a01b031916939092169290921790559151909190600282019061071990826118eb565b506060820151600382019061072e90826118eb565b50608082015160048083019190915560a08301516005909201805460c0909401511515600160a01b026001600160a81b03199094166001600160a01b03938416179390931790925585166000818152600260209081526040808320855481546001810183559185529290932090920155915491519091907f972dbb81b27759b1d272a61c75844b40278776b139229f8494bae6425cb229a6906107d290879061166a565b60405180910390a3506004549392505050565b600081815260016020526040902060050154606090600160a01b900460ff166108205760405162461bcd60e51b815260040161038d906119ab565b6000828152600160208181526040808420815160e08101835281548152938101546001600160a01b031692840192909252600282018054918401916108649061183b565b80601f01602080910402602001604051908101604052809291908181526020018280546108909061183b565b80156108dd5780601f106108b2576101008083540402835291602001916108dd565b820191906000526020600020905b8154815290600101906020018083116108c057829003601f168201915b505050505081526020016003820180546108f69061183b565b80601f01602080910402602001604051908101604052809291908181526020018280546109229061183b565b801561096f5780601f106109445761010080835404028352916020019161096f565b820191906000526020600020905b81548152906001019060200180831161095257829003601f168201915b505050918352505060048201546020808301919091526005909201546001600160a01b038082166040840152600160a01b90910460ff161515606090920191909152908201519192501633036109c9576040015192915050565b600133600090815260208190526040902054600160a01b900460ff1660028111156109f6576109f66116d3565b148015610a1f5750600083815260036020908152604080832033845290915290206002015460ff165b15610a2e576040015192915050565b600233600090815260208190526040902054600160a01b900460ff166002811115610a5b57610a5b6116d3565b03610a6a576040015192915050565b60405162461bcd60e51b815260040161038d90611814565b600082815260016020526040902060050154600160a01b900460ff16610aba5760405162461bcd60e51b815260040161038d906119ab565b600082815260016020819052604090912001546001600160a01b03163314610b245760405162461bcd60e51b815260206004820152601d60248201527f4f6e6c792070617469656e742063616e206772616e7420616363657373000000604482015260640161038d565b60016001600160a01b038216600090815260208190526040902054600160a01b900460ff166002811115610b5a57610b5a6116d3565b14610ba75760405162461bcd60e51b815260206004820152601760248201527f41646472657373206973206e6f74206120646f63746f72000000000000000000604482015260640161038d565b604080516060810182526001600160a01b03838116808352426020808501918252600185870181815260008a815260038452888120868252909352878320965187546001600160a01b031916961695909517865591519185019190915591516002909301805460ff19169315159390931790925591519091339185917f97a8264d9d0b9e21370349f9b49be012a5d1e27829879df8ba166dba48f898c691a45050565b60026020528160005260406000208181548110610c6657600080fd5b90600052602060002001600091509150505481565b600060208190529081526040902080546001820180546001600160a01b03831693600160a01b90930460ff16929190610cb39061183b565b80601f0160208091040260200160405190810160405280929190818152602001828054610cdf9061183b565b8015610d2c5780601f10610d0157610100808354040283529160200191610d2c565b820191906000526020600020905b815481529060010190602001808311610d0f57829003601f168201915b5050506002909301549192505060ff1684565b600233600090815260208190526040902054600160a01b900460ff166002811115610d6c57610d6c6116d3565b14610dc45760405162461bcd60e51b815260206004820152602260248201527f4f6e6c792061646d696e2063616e20706572666f726d2074686973206163746960448201526137b760f11b606482015260840161038d565b6001600160a01b03831660009081526020819052604090206002015460ff1615610e305760405162461bcd60e51b815260206004820152601760248201527f5573657220616c72656164792072656769737465726564000000000000000000604482015260640161038d565b6040518060800160405280846001600160a01b03168152602001836002811115610e5c57610e5c6116d3565b8152602080820184905260016040928301526001600160a01b038087166000908152808352929092208351815493166001600160a01b0319841681178255918401519092909183916001600160a81b03191617600160a01b836002811115610ec657610ec66116d3565b021790555060408201516001820190610edf90826118eb565b50606091909101516002909101805460ff19169115159190911790556040516001600160a01b038416907f04221ffa167b8d0a33647e46ee4f6728f4fe3651e4d56715ed0941b12046147b90610f3890859085906119da565b60405180910390a2505050565b6001600160a01b03818116600090815260208181526040808320815160808101909252805494851682529293606093859384939290830190600160a01b900460ff166002811115610f9857610f986116d3565b6002811115610fa957610fa96116d3565b8152602001600182018054610fbd9061183b565b80601f0160208091040260200160405190810160405280929190818152602001828054610fe99061183b565b80156110365780601f1061100b57610100808354040283529160200191611036565b820191906000526020600020905b81548152906001019060200180831161101957829003601f168201915b50505091835250506002919091015460ff16151560209182015281015160408201516060909201519097919650945092505050565b60008181526001602052604081206005015460609082908190600160a01b900460ff166110aa5760405162461bcd60e51b815260040161038d906119ab565b6000858152600160208181526040808420815160e08101835281548152938101546001600160a01b031692840192909252600282018054918401916110ee9061183b565b80601f016020809104026020016040519081016040528092919081815260200182805461111a9061183b565b80156111675780601f1061113c57610100808354040283529160200191611167565b820191906000526020600020905b81548152906001019060200180831161114a57829003601f168201915b505050505081526020016003820180546111809061183b565b80601f01602080910402602001604051908101604052809291908181526020018280546111ac9061183b565b80156111f95780601f106111ce576101008083540402835291602001916111f9565b820191906000526020600020905b8154815290600101906020018083116111dc57829003601f168201915b505050918352505060048201546020808301919091526005909201546001600160a01b038082166040840152600160a01b90910460ff161515606090920191909152908201519192501633148061127a5750600233600090815260208190526040902054600160a01b900460ff166002811115611278576112786116d3565b145b806112d65750600133600090815260208190526040902054600160a01b900460ff1660028111156112ad576112ad6116d3565b1480156112d65750600086815260036020908152604080832033845290915290206002015460ff165b6112f25760405162461bcd60e51b815260040161038d90611814565b8060200151816060015182608001518360a001519450945094509450509193509193565b600082815260016020526040902060050154600160a01b900460ff1661134e5760405162461bcd60e51b815260040161038d906119ab565b600082815260016020819052604090912001546001600160a01b031633146113b85760405162461bcd60e51b815260206004820152601e60248201527f4f6e6c792070617469656e742063616e207265766f6b65206163636573730000604482015260640161038d565b60008281526003602090815260408083206001600160a01b0385168085529252808320600201805460ff19169055519091339185917f260547d4038414ef72f081dcde91825693dff9bc433178f3e92ad36e0cd2275091a45050565b80356001600160a01b038116811461142b57600080fd5b919050565b60006020828403121561144257600080fd5b61144b82611414565b9392505050565b6020808252825182820181905260009190848201906040850190845b8181101561148a5783518352928401929184019160010161146e565b50909695505050505050565b6000602082840312156114a857600080fd5b5035919050565b6000815180845260005b818110156114d5576020818501810151868301820152016114b9565b506000602082860101526020601f19601f83011685010191505092915050565b878152600060018060a01b03808916602084015260e0604084015261151d60e08401896114af565b838103606085015261152f81896114af565b6080850197909752509390931660a082015290151560c09091015250949350505050565b634e487b7160e01b600052604160045260246000fd5b600082601f83011261157a57600080fd5b813567ffffffffffffffff8082111561159557611595611553565b604051601f8301601f19908116603f011681019082821181831017156115bd576115bd611553565b816040528381528660208588010111156115d657600080fd5b836020870160208301376000602085830101528094505050505092915050565b60008060006060848603121561160b57600080fd5b61161484611414565b9250602084013567ffffffffffffffff8082111561163157600080fd5b61163d87838801611569565b9350604086013591508082111561165357600080fd5b5061166086828701611569565b9150509250925092565b60208152600061144b60208301846114af565b6000806040838503121561169057600080fd5b823591506116a060208401611414565b90509250929050565b600080604083850312156116bc57600080fd5b6116c583611414565b946020939093013593505050565b634e487b7160e01b600052602160045260246000fd5b6003811061170757634e487b7160e01b600052602160045260246000fd5b9052565b6001600160a01b038516815261172460208201856116e9565b60806040820152600061173a60808301856114af565b9050821515606083015295945050505050565b60008060006060848603121561176257600080fd5b61176b84611414565b925060208401356003811061177f57600080fd5b9150604084013567ffffffffffffffff81111561179b57600080fd5b61166086828701611569565b6117b181856116e9565b6060602082015260006117c760608301856114af565b90508215156040830152949350505050565b600060018060a01b038087168352608060208401526117fb60808401876114af565b6040840195909552929092166060909101525092915050565b6020808252600d908201526c1058d8d95cdcc819195b9a5959609a1b604082015260600190565b600181811c9082168061184f57607f821691505b60208210810361186f57634e487b7160e01b600052602260045260246000fd5b50919050565b60006001820161189557634e487b7160e01b600052601160045260246000fd5b5060010190565b601f8211156118e657600081815260208120601f850160051c810160208610156118c35750805b601f850160051c820191505b818110156118e2578281556001016118cf565b5050505b505050565b815167ffffffffffffffff81111561190557611905611553565b61191981611913845461183b565b8461189c565b602080601f83116001811461194e57600084156119365750858301515b600019600386901b1c1916600185901b1785556118e2565b600085815260208120601f198616915b8281101561197d5788860151825594840194600190910190840161195e565b508582101561199b5787850151600019600388901b60f8161c191681555b5050505050600190811b01905550565b602080825260159082015274149958dbdc9908191bd95cc81b9bdd08195e1a5cdd605a1b604082015260600190565b6119e481846116e9565b6040602082015260006119fa60408301846114af565b94935050505056fea264697066735822122006405a37fab5b14a7fd79439633b5f99b773050d7e702494982430a29bfbe54764736f6c63430008130033",
  "linkReferences": {},
  "deployedLinkReferences": {}
}