{
  "_format": "hh-sol-artifact-1",
  "contractName": "MedicalRecordManager",
  "sourceName": "contracts/MedicalRecordManager.sol",
  "abi": [
    {
      "inputs": [],
      "stateMutability": "nonpayable",
      "type": "constructor"
    },
    {
      "anonymous": false,
      "inputs": [
        {
          "indexed": true,
          "internalType": "string",
          "name": "recordId",
          "type": "string"
        },
        {
          "indexed": true,
          "internalType": "string",
          "name": "patientId",
          "type": "string"
        },
        {
          "indexed": true,
          "internalType": "string",
          "name": "doctorId",
          "type": "string"
        },
        {
          "indexed": false,
          "internalType": "uint256",
          "name": "timestamp",
          "type": "uint256"
        }
      ],
      "name": "AccessGranted",
      "type": "event"
    },
    {
      "anonymous": false,
      "inputs": [
        {
          "indexed": true,
          "internalType": "string",
          "name": "recordId",
          "type": "string"
        },
        {
          "indexed": true,
          "internalType": "string",
          "name": "doctorId",
          "type": "string"
        },
        {
          "indexed": false,
          "internalType": "uint256",
          "name": "timestamp",
          "type": "uint256"
        }
      ],
      "name": "AccessRevoked",
      "type": "event"
    },
    {
      "anonymous": false,
      "inputs": [
        {
          "indexed": true,
          "internalType": "string",
          "name": "recordId",
          "type": "string"
        },
        {
          "indexed": false,
          "internalType": "string",
          "name": "action",
          "type": "string"
        },
        {
          "indexed": false,
          "internalType": "uint256",
          "name": "timestamp",
          "type": "uint256"
        }
      ],
      "name": "AuditLogCreated",
      "type": "event"
    },
    {
      "anonymous": false,
      "inputs": [
        {
          "indexed": true,
          "internalType": "string",
          "name": "recordId",
          "type": "string"
        },
        {
          "indexed": true,
          "internalType": "string",
          "name": "patientId",
          "type": "string"
        },
        {
          "indexed": false,
          "internalType": "string",
          "name": "ipfsHash",
          "type": "string"
        },
        {
          "indexed": false,
          "internalType": "string",
          "name": "recordType",
          "type": "string"
        },
        {
          "indexed": false,
          "internalType": "uint256",
          "name": "timestamp",
          "type": "uint256"
        }
      ],
      "name": "RecordAdded",
      "type": "event"
    },
    {
      "anonymous": false,
      "inputs": [
        {
          "indexed": true,
          "internalType": "string",
          "name": "recordId",
          "type": "string"
        },
        {
          "indexed": false,
          "internalType": "uint256",
          "name": "timestamp",
          "type": "uint256"
        }
      ],
      "name": "RecordArchived",
      "type": "event"
    },
    {
      "anonymous": false,
      "inputs": [
        {
          "indexed": true,
          "internalType": "string",
          "name": "recordId",
          "type": "string"
        },
        {
          "indexed": false,
          "internalType": "bool",
          "name": "isValid",
          "type": "bool"
        },
        {
          "indexed": false,
          "internalType": "uint256",
          "name": "timestamp",
          "type": "uint256"
        }
      ],
      "name": "RecordVerified",
      "type": "event"
    },
    {
      "inputs": [
        {
          "internalType": "string",
          "name": "recordId",
          "type": "string"
        },
        {
          "internalType": "string",
          "name": "ipfsHash",
          "type": "string"
        },
        {
          "internalType": "string",
          "name": "patientId",
          "type": "string"
        },
        {
          "internalType": "string",
          "name": "doctorId",
          "type": "string"
        },
        {
          "internalType": "string",
          "name": "recordType",
          "type": "string"
        }
      ],
      "name": "addRecord",
      "outputs": [
        {
          "internalType": "bool",
          "name": "",
          "type": "bool"
        }
      ],
      "stateMutability": "nonpayable",
      "type": "function"
    },
    {
      "inputs": [
        {
          "internalType": "string",
          "name": "recordId",
          "type": "string"
        }
      ],
      "name": "archiveRecord",
      "outputs": [
        {
          "internalType": "bool",
          "name": "",
          "type": "bool"
        }
      ],
      "stateMutability": "nonpayable",
      "type": "function"
    },
    {
      "inputs": [],
      "name": "contractOwner",
      "outputs": [
        {
          "internalType": "address",
          "name": "",
          "type": "address"
        }
      ],
      "stateMutability": "view",
      "type": "function"
    },
    {
      "inputs": [
        {
          "internalType": "string",
          "name": "recordId",
          "type": "string"
        }
      ],
      "name": "getAuditTrail",
      "outputs": [
        {
          "components": [
            {
              "internalType": "uint256",
              "name": "timestamp",
              "type": "uint256"
            },
            {
              "internalType": "string",
              "name": "action",
              "type": "string"
            },
            {
              "internalType": "string",
              "name": "actor",
              "type": "string"
            },
            {
              "internalType": "string",
              "name": "details",
              "type": "string"
            }
          ],
          "internalType": "struct MedicalRecordManager.AuditLog[]",
          "name": "",
          "type": "tuple[]"
        }
      ],
      "stateMutability": "view",
      "type": "function"
    },
    {
      "inputs": [
        {
          "internalType": "string",
          "name": "patientId",
          "type": "string"
        }
      ],
      "name": "getPatientRecordCount",
      "outputs": [
        {
          "internalType": "uint256",
          "name": "",
          "type": "uint256"
        }
      ],
      "stateMutability": "view",
      "type": "function"
    },
    {
      "inputs": [
        {
          "internalType": "string",
          "name": "patientId",
          "type": "string"
        }
      ],
      "name": "getPatientRecords",
      "outputs": [
        {
          "internalType": "string[]",
          "name": "",
          "type": "string[]"
        }
      ],
      "stateMutability": "view",
      "type": "function"
    },
    {
      "inputs": [
        {
          "internalType": "string",
          "name": "recordId",
          "type": "string"
        }
      ],
      "name": "getRecord",
      "outputs": [
        {
          "internalType": "string",
          "name": "",
          "type": "string"
        },
        {
          "internalType": "string",
          "name": "",
          "type": "string"
        },
        {
          "internalType": "string",
          "name": "",
          "type": "string"
        },
        {
          "internalType": "string",
          "name": "",
          "type": "string"
        },
        {
          "internalType": "uint256",
          "name": "",
          "type": "uint256"
        },
        {
          "internalType": "uint256",
          "name": "",
          "type": "uint256"
        },
        {
          "internalType": "string",
          "name": "",
          "type": "string"
        }
      ],
      "stateMutability": "view",
      "type": "function"
    },
    {
      "inputs": [
        {
          "internalType": "string",
          "name": "recordId",
          "type": "string"
        }
      ],
      "name": "isRecordValid",
      "outputs": [
        {
          "internalType": "bool",
          "name": "",
          "type": "bool"
        }
      ],
      "stateMutability": "view",
      "type": "function"
    },
    {
      "inputs": [
        {
          "internalType": "string",
          "name": "",
          "type": "string"
        },
        {
          "internalType": "uint256",
          "name": "",
          "type": "uint256"
        }
      ],
      "name": "patientRecords",
      "outputs": [
        {
          "internalType": "string",
          "name": "",
          "type": "string"
        }
      ],
      "stateMutability": "view",
      "type": "function"
    },
    {
      "inputs": [
        {
          "internalType": "string",
          "name": "",
          "type": "string"
        },
        {
          "internalType": "uint256",
          "name": "",
          "type": "uint256"
        }
      ],
      "name": "recordAccessLogs",
      "outputs": [
        {
          "internalType": "address",
          "name": "patientAddress",
          "type": "address"
        },
        {
          "internalType": "address",
          "name": "doctorAddress",
          "type": "address"
        },
        {
          "internalType": "uint256",
          "name": "grantedAt",
          "type": "uint256"
        },
        {
          "internalType": "uint256",
          "name": "expiresAt",
          "type": "uint256"
        },
        {
          "internalType": "bool",
          "name": "isActive",
          "type": "bool"
        }
      ],
      "stateMutability": "view",
      "type": "function"
    },
    {
      "inputs": [],
      "name": "recordExpirationDays",
      "outputs": [
        {
          "internalType": "uint256",
          "name": "",
          "type": "uint256"
        }
      ],
      "stateMutability": "view",
      "type": "function"
    },
    {
      "inputs": [
        {
          "internalType": "string",
          "name": "",
          "type": "string"
        }
      ],
      "name": "records",
      "outputs": [
        {
          "internalType": "string",
          "name": "recordId",
          "type": "string"
        },
        {
          "internalType": "string",
          "name": "ipfsHash",
          "type": "string"
        },
        {
          "internalType": "string",
          "name": "patientId",
          "type": "string"
        },
        {
          "internalType": "string",
          "name": "doctorId",
          "type": "string"
        },
        {
          "internalType": "uint256",
          "name": "timestamp",
          "type": "uint256"
        },
        {
          "internalType": "uint256",
          "name": "expiresAt",
          "type": "uint256"
        },
        {
          "internalType": "string",
          "name": "recordType",
          "type": "string"
        },
        {
          "internalType": "enum MedicalRecordManager.RecordStatus",
          "name": "status",
          "type": "uint8"
        },
        {
          "internalType": "bytes32",
          "name": "hashVerification",
          "type": "bytes32"
        },
        {
          "internalType": "bool",
          "name": "exists",
          "type": "bool"
        }
      ],
      "stateMutability": "view",
      "type": "function"
    },
    {
      "inputs": [
        {
          "internalType": "string",
          "name": "recordId",
          "type": "string"
        }
      ],
      "name": "revokeRecord",
      "outputs": [
        {
          "internalType": "bool",
          "name": "",
          "type": "bool"
        }
      ],
      "stateMutability": "nonpayable",
      "type": "function"
    },
    {
      "inputs": [
        {
          "internalType": "uint256",
          "name": "_days",
          "type": "uint256"
        }
      ],
      "name": "setRecordExpirationDays",
      "outputs": [],
      "stateMutability": "nonpayable",
      "type": "function"
    },
    {
      "inputs": [],
      "name": "totalRecords",
      "outputs": [
        {
          "internalType": "uint256",
          "name": "",
          "type": "uint256"
        }
      ],
      "stateMutability": "view",
      "type": "function"
    },
    {
      "inputs": [
        {
          "internalType": "string",
          "name": "recordId",
          "type": "string"
        },
        {
          "internalType": "string",
          "name": "ipfsHash",
          "type": "string"
        }
      ],
      "name": "verifyRecord",
      "outputs": [
        {
          "internalType": "bool",
          "name": "",
          "type": "bool"
        }
      ],
      "stateMutability": "nonpayable",
      "type": "function"
    }
  ],
  "bytecode": "0x60806040526109fb60065534801561001657600080fd5b50600480546001600160a01b03191633179055612459806100386000396000f3fe608060405234801561001057600080fd5b50600436106101005760003560e01c8063b8a751df11610097578063d665832c11610066578063d665832c1461026e578063daae2a4214610281578063ecbaae4814610296578063f86681b8146102de57600080fd5b8063b8a751df146101f0578063bdd1841914610210578063c846831614610230578063ce606ee01461024357600080fd5b80633de2e8e9116100d35780633de2e8e91461018157806345ffb86314610194578063541e771d146101a75780635cd40af5146101d057600080fd5b806311dd884514610105578063125f8974146101345780632d1814f21461014b5780633502f3231461016e575b600080fd5b610118610113366004611d50565b6102e7565b60405161012b9796959493929190611dd5565b60405180910390f35b61013d60055481565b60405190815260200161012b565b61015e610159366004611e50565b6107a0565b604051901515815260200161012b565b61013d61017c366004611d50565b610b7f565b61015e61018f366004611f22565b610ba7565b61015e6101a2366004611d50565b610d34565b6101ba6101b5366004611d50565b610f03565b60405161012b9a99989796959493929190611f9c565b6101e36101de366004611d50565b611209565b60405161012b9190612058565b6102036101fe3660046120ba565b611300565b60405161012b91906120ff565b61022361021e366004611d50565b6113c8565b60405161012b9190612119565b61015e61023e366004611d50565b6115fa565b600454610256906001600160a01b031681565b6040516001600160a01b03909116815260200161012b565b61015e61027c366004611d50565b611703565b61029461028f3660046121c5565b611ae0565b005b6102a96102a43660046120ba565b611b53565b604080516001600160a01b0396871681529590941660208601529284019190915260608301521515608082015260a00161012b565b61013d60065481565b60608060608060008060608760008160405161030391906121de565b9081526040519081900360200190206009015460ff1661033e5760405162461bcd60e51b8152600401610335906121fa565b60405180910390fd5b6000808a60405161034f91906121de565b90815260200160405180910390206040518061014001604052908160008201805461037990612229565b80601f01602080910402602001604051908101604052809291908181526020018280546103a590612229565b80156103f25780601f106103c7576101008083540402835291602001916103f2565b820191906000526020600020905b8154815290600101906020018083116103d557829003601f168201915b5050505050815260200160018201805461040b90612229565b80601f016020809104026020016040519081016040528092919081815260200182805461043790612229565b80156104845780601f1061045957610100808354040283529160200191610484565b820191906000526020600020905b81548152906001019060200180831161046757829003601f168201915b5050505050815260200160028201805461049d90612229565b80601f01602080910402602001604051908101604052809291908181526020018280546104c990612229565b80156105165780601f106104eb57610100808354040283529160200191610516565b820191906000526020600020905b8154815290600101906020018083116104f957829003601f168201915b5050505050815260200160038201805461052f90612229565b80601f016020809104026020016040519081016040528092919081815260200182805461055b90612229565b80156105a85780601f1061057d576101008083540402835291602001916105a8565b820191906000526020600020905b81548152906001019060200180831161058b57829003601f168201915b5050505050815260200160048201548152602001600582015481526020016006820180546105d590612229565b80601f016020809104026020016040519081016040528092919081815260200182805461060190612229565b801561064e5780601f106106235761010080835404028352916020019161064e565b820191906000526020600020905b81548152906001019060200180831161063157829003601f168201915b5050509183525050600782015460209091019060ff16600281111561067557610675611f86565b600281111561068657610686611f86565b8152602001600882015481526020016009820160009054906101000a900460ff16151515158152505090508060200151816040015182606001518360c0015184608001518560a00151600060028111156106e2576106e2611f86565b8760e0015160028111156106f8576106f8611f86565b146107655760018760e00151600281111561071557610715611f86565b1461073f576040518060400160405280600781526020016614915593d2d15160ca1b815250610785565b60405180604001604052806008815260200167105490d21255915160c21b815250610785565b6040518060400160405280600681526020016541435449564560d01b8152505b98509850985098509850985098505050919395979092949650565b600080866040516107b191906121de565b9081526040519081900360200190206009015460ff161561080c5760405162461bcd60e51b81526020600482015260156024820152745265636f726420616c72656164792065786973747360581b6044820152606401610335565b600086511161085d5760405162461bcd60e51b815260206004820152601960248201527f5265636f72642049442063616e6e6f7420626520656d707479000000000000006044820152606401610335565b60008551116108ae5760405162461bcd60e51b815260206004820152601960248201527f4950465320686173682063616e6e6f7420626520656d707479000000000000006044820152606401610335565b60008451116108ff5760405162461bcd60e51b815260206004820152601a60248201527f50617469656e742049442063616e6e6f7420626520656d7074790000000000006044820152606401610335565b6000600654620151806109129190612273565b61091c9042612290565b905060008660405160200161093191906121de565b6040516020818303038152906040528051906020012090506040518061014001604052808981526020018881526020018781526020018681526020014281526020018381526020018581526020016000600281111561099257610992611f86565b8152602081018390526001604091820152516000906109b2908b906121de565b908152604051908190036020019020815181906109cf90826122f2565b50602082015160018201906109e490826122f2565b50604082015160028201906109f990826122f2565b5060608201516003820190610a0e90826122f2565b506080820151600482015560a0820151600582015560c08201516006820190610a3790826122f2565b5060e082015160078201805460ff19166001836002811115610a5b57610a5b611f86565b02179055506101008201516008820155610120909101516009909101805460ff1916911515919091179055604051600190610a979088906121de565b908152604051602091819003820190208054600181018255600091825291902001610ac289826122f2565b5060058054906000610ad3836123b2565b9190505550610b0a886040518060400160405280600e81526020016d149150d3d49117d0d4915055115160921b8152508787611bc0565b85604051610b1891906121de565b604051809103902088604051610b2e91906121de565b60405180910390207f908a0f5bde32680ce8df91fd990d474f9ec080e9e51f3230fc72c0a19acfd2f7898742604051610b69939291906123cb565b60405180910390a3506001979650505050505050565b6000600182604051610b9191906121de565b9081526040519081900360200190205492915050565b600082600081604051610bba91906121de565b9081526040519081900360200190206009015460ff16610bec5760405162461bcd60e51b8152600401610335906121fa565b60008085604051610bfd91906121de565b90815260200160405180910390209050600084604051602001610c2091906121de565b6040516020818303038152906040528051906020012090506000818360080154149050610cdb876040518060400160405280600f81526020016e149150d3d49117d591549251925151608a1b8152506040518060400160405280600681526020016573797374656d60d01b81525084610cb857604051806040016040528060078152602001661253959053125160ca1b815250611bc0565b60405180604001604052806005815260200164159053125160da1b815250611bc0565b86604051610ce991906121de565b604080519182900382208315158352426020840152917f80366112f0585c7f91826d23e95ff74772920644739cd7b45b03a31c1998b036910160405180910390a29695505050505050565b600081600081604051610d4791906121de565b9081526040519081900360200190206009015460ff16610d795760405162461bcd60e51b8152600401610335906121fa565b8260008082604051610d8b91906121de565b9081526040519081900360200190206007015460ff166002811115610db257610db2611f86565b14610df65760405162461bcd60e51b81526020600482015260146024820152735265636f7264206973206e6f742061637469766560601b6044820152606401610335565b6001600085604051610e0891906121de565b908152604051908190036020019020600701805460ff19166001836002811115610e3457610e34611f86565b0217905550610eb1846040518060400160405280600f81526020016e149150d3d49117d05490d212559151608a1b8152506040518060400160405280600681526020016573797374656d60d01b8152506040518060400160405280600f81526020016e149958dbdc9908185c98da1a5d9959608a1b815250611bc0565b83604051610ebf91906121de565b604051908190038120428252907f778effb9f73b66af6670a431a86312279c42639b81794b6627a0a2da8685f05d9060200160405180910390a25060019392505050565b8051602081830181018051600082529282019190930120915280548190610f2990612229565b80601f0160208091040260200160405190810160405280929190818152602001828054610f5590612229565b8015610fa25780601f10610f7757610100808354040283529160200191610fa2565b820191906000526020600020905b815481529060010190602001808311610f8557829003601f168201915b505050505090806001018054610fb790612229565b80601f0160208091040260200160405190810160405280929190818152602001828054610fe390612229565b80156110305780601f1061100557610100808354040283529160200191611030565b820191906000526020600020905b81548152906001019060200180831161101357829003601f168201915b50505050509080600201805461104590612229565b80601f016020809104026020016040519081016040528092919081815260200182805461107190612229565b80156110be5780601f10611093576101008083540402835291602001916110be565b820191906000526020600020905b8154815290600101906020018083116110a157829003601f168201915b5050505050908060030180546110d390612229565b80601f01602080910402602001604051908101604052809291908181526020018280546110ff90612229565b801561114c5780601f106111215761010080835404028352916020019161114c565b820191906000526020600020905b81548152906001019060200180831161112f57829003601f168201915b50505050509080600401549080600501549080600601805461116d90612229565b80601f016020809104026020016040519081016040528092919081815260200182805461119990612229565b80156111e65780601f106111bb576101008083540402835291602001916111e6565b820191906000526020600020905b8154815290600101906020018083116111c957829003601f168201915b5050505060078301546008840154600990940154929360ff91821693909250168a565b606060018260405161121b91906121de565b9081526020016040518091039020805480602002602001604051908101604052809291908181526020016000905b828210156112f557838290600052602060002001805461126890612229565b80601f016020809104026020016040519081016040528092919081815260200182805461129490612229565b80156112e15780601f106112b6576101008083540402835291602001916112e1565b820191906000526020600020905b8154815290600101906020018083116112c457829003601f168201915b505050505081526020019060010190611249565b505050509050919050565b8151602081840181018051600182529282019185019190912091905280548290811061132b57600080fd5b9060005260206000200160009150915050805461134790612229565b80601f016020809104026020016040519081016040528092919081815260200182805461137390612229565b80156113c05780601f10611395576101008083540402835291602001916113c0565b820191906000526020600020905b8154815290600101906020018083116113a357829003601f168201915b505050505081565b60606003826040516113da91906121de565b9081526020016040518091039020805480602002602001604051908101604052809291908181526020016000905b828210156112f557838290600052602060002090600402016040518060800160405290816000820154815260200160018201805461144590612229565b80601f016020809104026020016040519081016040528092919081815260200182805461147190612229565b80156114be5780601f10611493576101008083540402835291602001916114be565b820191906000526020600020905b8154815290600101906020018083116114a157829003601f168201915b505050505081526020016002820180546114d790612229565b80601f016020809104026020016040519081016040528092919081815260200182805461150390612229565b80156115505780601f1061152557610100808354040283529160200191611550565b820191906000526020600020905b81548152906001019060200180831161153357829003601f168201915b5050505050815260200160038201805461156990612229565b80601f016020809104026020016040519081016040528092919081815260200182805461159590612229565b80156115e25780601f106115b7576101008083540402835291602001916115e2565b820191906000526020600020905b8154815290600101906020018083116115c557829003601f168201915b50505050508152505081526020019060010190611408565b60008160008160405161160d91906121de565b9081526040519081900360200190206009015460ff1661163f5760405162461bcd60e51b8152600401610335906121fa565b600260008460405161165191906121de565b908152604051908190036020019020600701805460ff1916600183600281111561167d5761167d611f86565b02179055506116f8836040518060400160405280600e81526020016d149150d3d49117d4915593d2d15160921b8152506040518060400160405280600681526020016573797374656d60d01b8152506040518060400160405280600e81526020016d149958dbdc99081c995d9bdad95960921b815250611bc0565b600191505b50919050565b60008160008160405161171691906121de565b9081526040519081900360200190206009015460ff166117485760405162461bcd60e51b8152600401610335906121fa565b6000808460405161175991906121de565b90815260200160405180910390206040518061014001604052908160008201805461178390612229565b80601f01602080910402602001604051908101604052809291908181526020018280546117af90612229565b80156117fc5780601f106117d1576101008083540402835291602001916117fc565b820191906000526020600020905b8154815290600101906020018083116117df57829003601f168201915b5050505050815260200160018201805461181590612229565b80601f016020809104026020016040519081016040528092919081815260200182805461184190612229565b801561188e5780601f106118635761010080835404028352916020019161188e565b820191906000526020600020905b81548152906001019060200180831161187157829003601f168201915b505050505081526020016002820180546118a790612229565b80601f01602080910402602001604051908101604052809291908181526020018280546118d390612229565b80156119205780601f106118f557610100808354040283529160200191611920565b820191906000526020600020905b81548152906001019060200180831161190357829003601f168201915b5050505050815260200160038201805461193990612229565b80601f016020809104026020016040519081016040528092919081815260200182805461196590612229565b80156119b25780601f10611987576101008083540402835291602001916119b2565b820191906000526020600020905b81548152906001019060200180831161199557829003601f168201915b5050505050815260200160048201548152602001600582015481526020016006820180546119df90612229565b80601f0160208091040260200160405190810160405280929190818152602001828054611a0b90612229565b8015611a585780601f10611a2d57610100808354040283529160200191611a58565b820191906000526020600020905b815481529060010190602001808311611a3b57829003601f168201915b5050509183525050600782015460209091019060ff166002811115611a7f57611a7f611f86565b6002811115611a9057611a90611f86565b81526008820154602082015260099091015460ff161515604090910152905060008160e001516002811115611ac757611ac7611f86565b148015611ad857508060a001514211155b949350505050565b6004546001600160a01b03163314611b4e5760405162461bcd60e51b815260206004820152602b60248201527f4f6e6c7920636f6e7472616374206f776e65722063616e20706572666f726d2060448201526a3a3434b99030b1ba34b7b760a91b6064820152608401610335565b600655565b81516020818401810180516002825292820191850191909120919052805482908110611b7e57600080fd5b6000918252602090912060059091020180546001820154600283015460038401546004909401546001600160a01b039384169650929091169350919060ff1685565b600384604051611bd091906121de565b908152604080519182900360209081018320608084018352428452838201878152928401869052606084018590528054600181810183556000928352929091208451600490920201908155915190820190611c2b90826122f2565b5060408201516002820190611c4090826122f2565b5060608201516003820190611c5590826122f2565b50505083604051611c6691906121de565b60405180910390207f8644d1d6176e0e319b67af89a4a4fac5d4f3072541a206c81cf9a443a3e6cdce8442604051611c9f929190612401565b60405180910390a250505050565b634e487b7160e01b600052604160045260246000fd5b600082601f830112611cd457600080fd5b813567ffffffffffffffff80821115611cef57611cef611cad565b604051601f8301601f19908116603f01168101908282118183101715611d1757611d17611cad565b81604052838152866020858801011115611d3057600080fd5b836020870160208301376000602085830101528094505050505092915050565b600060208284031215611d6257600080fd5b813567ffffffffffffffff811115611d7957600080fd5b611ad884828501611cc3565b60005b83811015611da0578181015183820152602001611d88565b50506000910152565b60008151808452611dc1816020860160208601611d85565b601f01601f19169290920160200192915050565b60e081526000611de860e083018a611da9565b8281036020840152611dfa818a611da9565b90508281036040840152611e0e8189611da9565b90508281036060840152611e228188611da9565b90508560808401528460a084015282810360c0840152611e428185611da9565b9a9950505050505050505050565b600080600080600060a08688031215611e6857600080fd5b853567ffffffffffffffff80821115611e8057600080fd5b611e8c89838a01611cc3565b96506020880135915080821115611ea257600080fd5b611eae89838a01611cc3565b95506040880135915080821115611ec457600080fd5b611ed089838a01611cc3565b94506060880135915080821115611ee657600080fd5b611ef289838a01611cc3565b93506080880135915080821115611f0857600080fd5b50611f1588828901611cc3565b9150509295509295909350565b60008060408385031215611f3557600080fd5b823567ffffffffffffffff80821115611f4d57600080fd5b611f5986838701611cc3565b93506020850135915080821115611f6f57600080fd5b50611f7c85828601611cc3565b9150509250929050565b634e487b7160e01b600052602160045260246000fd5b6000610140808352611fb08184018e611da9565b90508281036020840152611fc4818d611da9565b90508281036040840152611fd8818c611da9565b90508281036060840152611fec818b611da9565b90508860808401528760a084015282810360c084015261200c8188611da9565b9150506003851061202d57634e487b7160e01b600052602160045260246000fd5b8460e08301528361010083015261204961012083018415159052565b9b9a5050505050505050505050565b6000602080830181845280855180835260408601915060408160051b870101925083870160005b828110156120ad57603f1988860301845261209b858351611da9565b9450928501929085019060010161207f565b5092979650505050505050565b600080604083850312156120cd57600080fd5b823567ffffffffffffffff8111156120e457600080fd5b6120f085828601611cc3565b95602094909401359450505050565b6020815260006121126020830184611da9565b9392505050565b60006020808301818452808551808352604092508286019150828160051b87010184880160005b838110156121b757603f19898403018552815160808151855288820151818a87015261216e82870182611da9565b91505087820151858203898701526121868282611da9565b915050606080830151925085820381870152506121a38183611da9565b968901969450505090860190600101612140565b509098975050505050505050565b6000602082840312156121d757600080fd5b5035919050565b600082516121f0818460208701611d85565b9190910192915050565b602080825260159082015274149958dbdc9908191bd95cc81b9bdd08195e1a5cdd605a1b604082015260600190565b600181811c9082168061223d57607f821691505b6020821081036116fd57634e487b7160e01b600052602260045260246000fd5b634e487b7160e01b600052601160045260246000fd5b808202811582820484141761228a5761228a61225d565b92915050565b8082018082111561228a5761228a61225d565b601f8211156122ed57600081815260208120601f850160051c810160208610156122ca5750805b601f850160051c820191505b818110156122e9578281556001016122d6565b5050505b505050565b815167ffffffffffffffff81111561230c5761230c611cad565b6123208161231a8454612229565b846122a3565b602080601f831160018114612355576000841561233d5750858301515b600019600386901b1c1916600185901b1785556122e9565b600085815260208120601f198616915b8281101561238457888601518255948401946001909101908401612365565b50858210156123a25787850151600019600388901b60f8161c191681555b5050505050600190811b01905550565b6000600182016123c4576123c461225d565b5060010190565b6060815260006123de6060830186611da9565b82810360208401526123f08186611da9565b915050826040830152949350505050565b6040815260006124146040830185611da9565b9050826020830152939250505056fea2646970667358221220bfab39fa6f4999bdcee9fbed075457df9509051317b708e29886640728a072cd64736f6c63430008130033",
  "linkReferences": {},
  "deployedLinkReferences": {}
}